:1008000075FFDE75FFAD75B214E4F5E1F5E275E351
:1008100040FDFF1208BB7D017F011208BBE4FD7F94
:10082000021208BB7D017F031208BBE4FF1208FE21
:100830007F011208FE7F021208FE7F031208FE7F6E
:08084000E87E031208DE80E3EC
:1008DE00E4FDFCC3ED9FEC9E5015E4FBFA0BBB0050
:0F08EE00010AEB64784A70F50DBD00010C80E43F
:0108FD0022D8
:1008BB00EF14600F1460111460132403701253A60D
:1008CB00FE800D53A6FD800853A6FB800353A6F7AD
:0308DB00020848C8
:1008FE008F08120883BF0104E4FD80027D01AF085A
:04090E001208482261
:10084800EF1460121460191460222403702CE5A0C0
:1008580054FE4DF5A022ED25E0FFE5A054FD8017DC
:10086800ED25E025E0FFE5A054FB800BED333333A5
:0B08780054F8FFE5A054F74FF5A02254
:10088300E4FEEF14601114601714601F2403702535
:10089300E5A05401FE801EE5A05402C313FE80159B
:1008A300E5A054041313543FFE800AE5A054081333
:0708B3001313541FFEAF06F2
:0108BA00221B
:03000000020912E0
:0C091200787FE4F6D8FD7581080208002B
:00000001FF
