:10088C00E4F51375FFDE75FFAD75B214F5E1F5E215
:10089C0075E340FDFF1209457D017F01120945E416
:1008AC00FD7F021209457D017F031209451209C51E
:1008BC00E51375F00A84AFF01209BD05137FE87ECD
:0608CC000312097C80EA22
:10097C00E4FDFCC3ED9FEC9E5015E4FBFA0BBB00B1
:0F098C00010AEB64784A70F50DBD00010C80E4A0
:01099B002239
:10094500EF14601414601B14602224037026E5A6BE
:1009550054FE4401F5A6801CE5A654FD4402F5A607
:100965008012E5A654FB4404F5A68008E5A654F7D5
:070975004408F5A60208D2B8
:10099C008F1212090DBF0104E4FD80027D01AF121C
:0409AC001208D22239
:1008D200EF1460121460191460222403702CE5A036
:1008E20054FE4DF5A022ED25E0FFE5A054FD801752
:1008F200ED25E025E0FFE5A054FB800BED3333331B
:0B09020054F8FFE5A054F74FF5A022C9
:10090D00E4FEEF14601114601714601F24037025AA
:10091D00E5A05401FE801EE5A05402C313FE801510
:10092D00E5A054041313543FFE800AE5A0540813A8
:07093D001313541FFEAF0667
:010944002290
:0C09B0000A08C0F9A4B0999282F8809067
:0709C50075A4FE85088022E5
:0809BD0074082FF8E6F5802212
:03000000020800F3
:0C080000787FE4F6D8FD758113020847EC
:10080C0002088CE493A3F8E493A34003F68001F26E
:10081C0008DFF48029E493A3F85407240CC8C333ED
:10082C00C4540F4420C8834004F456800146F6DFBC
:10083C00E4800B01020408102040809009B0E47E93
:10084C00019360BCA3FF543F30E509541FFEE493B1
:10085C00A360010ECF54C025E060A840B8E493A378
:10086C00FAE493A3F8E493A3C8C582C8CAC583CAA3
:10087C00F0A3C8C582C8CAC583CADFE9DEE780BE5B
:0109BC00003A
:00000001FF
