:10097500E4F512F513F51475FFDE75FFAD75B214C8
:10098500F5E1F5E275E340FF12088C120A37E5122E
:1009950075F00A84AFF0120A2F0512E4F513F51469
:1009A500E514640A451360E60514E51470020513A1
:1009B500E4FF120902EF7002F5127F647E0012094E
:0309C500C880DD0A
:1009C800E4FDFCC3ED9FEC9E5015E4FBFA0BBB0065
:0F09D800010AEB64144A70F50DBD00010C80E4B8
:0109E70022ED
:0E09FC00EF7008E5A654FE4401F5A6020A2499
:1009E8008F15120A0ABF0104E4FD80027D01AF15CC
:0409F800120A242299
:0B0A2400EF7007E5A054FE4DF5A02286
:0C0A0A00E4FEEF7005E5A05401FEAF060D
:010A160022BD
:0C0A17000A08C0F9A4B0999282F88090FF
:070A370075A4FE8508802272
:080A2F0074082FF8E6F580229F
:10088C00EFB40700506F900899F82828730208AE4F
:10089C000208BA0208F60208C60208D20208DE02F2
:1008AC0008EA53A5BFE59054BF4440F5902253A5E8
:1008BC007FE590547F4480F5902253A5FBE590543E
:1008CC00FB4404F5902253A5F7E59054F74408F542
:1008DC00902253A5EFE59054EF4410F5902253A5C8
:1008EC00DFE59054DF4420F5902253A5FDE59054AC
:0608FC00FD4402F590220C
:100902007E01EFB407005068900911F8282873029D
:10091200092602093202096B02093F02094A020949
:1009220056020960E5905440C413135403FE8040FC
:10093200E5905480C41313135401FE8033E59054A0
:10094200041313543FFE8028E590540813131354E4
:100952001FFE801CE5905410C4540FFE8012E590D7
:100962005420C4135407FE8007E5905402C313FEBB
:02097200AF06CE
:010974002260
:03000000020800F3
:0C080000787FE4F6D8FD758115020847EA
:10080C00020975E493A3F8E493A34003F68001F284
:10081C0008DFF48029E493A3F85407240CC8C333ED
:10082C00C4540F4420C8834004F456800146F6DFBC
:10083C00E4800B0102040810204080900A17E47E2B
:10084C00019360BCA3FF543F30E509541FFEE493B1
:10085C00A360010ECF54C025E060A840B8E493A378
:10086C00FAE493A3F8E493A3C8C582C8CAC583CAA3
:10087C00F0A3C8C582C8CAC583CADFE9DEE780BE5B
:010A230000D2
:00000001FF
