:0511BD0000000000002D
:0609E7008B118A12891336
:1009ED00E4F517F5187D01FF1210C3E4F517F5189E
:1009FD00E5186414451760380518E51870020517D9
:100A0D00E4FF120FA9EF700DAB11AA12A9139000FC
:100A1D0004041209707F01120FA9EF700AAB11AA1D
:100A2D0012A9130412095E7F647E0012116D80C03D
:100A3D00E4FDFF1210C37D017F011210C3E4F51711
:100A4D00F518E518643245177003020B19E4FF120F
:100A5D000FA9EF700DAB11AA12A913900004041287
:100A6D0009707F01120FA9EF700AAB11AA12A91319
:100A7D000412095E7F08120FA9EF700AAB14AA15B4
:100A8D00A9160412093C7F08120FA9EF60F87F091F
:100A9D00120FA9EF7013AB14AA15A9161208F6D3ED
:100AAD009400400574FF12093C7F09120FA9EF60F5
:100ABD00F8AB14AA15A9161208F6D3940440097DB3
:100ACD00017F031210C3800FE4FD7F031210C305D5
:100ADD0018E518700205177F07120FA9EF601EABFE
:100AED0014AA15A9161208F67018AB11AA12A9139B
:100AFD001208F6700D90000412090F7005E4F51739
:100B0D00F5187F647E0012116D020A4FE4FD7F011E
:100B1D001210C37D01E4FF1210C3E4F517F518E5BB
:100B2D00186414451760480518E51870020517E498
:100B3D00FF120FA9EF700DAB11AA12A913900004AB
:100B4D00041209707F01120FA9EF700AAB11AA12DE
:100B5D00A9130412095E7F0A120FA9EF7008FDFF99
:100B6D001210C37F00227F647E0012116D80B0E4ED
:070B7D00FDFF1210C37F0110
:010B8400224E
:060EFF008B118A12891319
:100F0500E4F514F515E515643245147003020FA6D2
:100F15000515E515700205147F07120FA9EF70027C
:100F2500FF227F02120FA9EF60087F01120FA9EFC0
:100F3500700DAB11AA12A913740112095E80587FB6
:100F450003120FA9EF700BAB11AA12A913900001A0
:100F550080247F04120FA9EF700BAB11AA12A913FD
:100F650090000280117F05120FA9EF700CAB11AA3A
:100F750012A91390000304801B7F06120FA9EF60CE
:100F850008E4FF120FA9EF700EAB11AA12A9139076
:100F9500000474011209707F647E0012116D020F46
:030FA5000A7F01BF
:010FA8002226
:060C9C008B118A1289137E
:100CA200E4F51AF51BF51CF51DAB14AA15A91612CD
:100CB20008F6FEAB11AA12A9131208F6FF6E606EB7
:100CC200E4F51AF51B1211AEE51B6432451A6050A9
:100CD2007F0212118D751C00751D0AE51D151DAED2
:100CE2001C7002151C4E60E0051BE51B7002051A04
:100CF200E4FF120FA9EF700DAB17AA18A919900003
:100D020005041209707F01120FA9EF700AAB17AA2E
:100D120018A9190412095E7F647E0012116D80BB4E
:100D2200AB11AA12A913740112093C020CABE4FD27
:100D32007F021210C3AB11AA12A9131208F6FF12F6
:100D420011AEAB11AA12A9131208F6FFAB17AA181B
:100D5200A919F58275830012090F70047E018002C1
:100D62007E00AB17AA18A9198F82758300EE0209BB
:010D72007010
:060D73008B118A128913A6
:100D7900E4F51AF51BF51CF51DAB14AA15A91612F5
:100D890008F6FEAB11AA12A9131208F6FF6E606EDF
:100D9900E4F51AF51B1211AEE51B6432451A6050D1
:100DA9007F0212118D751C00751D0AE51D151DAEFA
:100DB9001C7002151C4E60E0051BE51B7002051A2C
:100DC900E4FF120FA9EF700DAB17AA18A91990002B
:100DD90005041209707F01120FA9EF700AAB17AA57
:100DE90018A9190412095E7F647E0012116D80BB77
:100DF900AB11AA12A91374FF12093C020D82E4FD7A
:100E09007F021210C3AB11AA12A9131208F6FF121E
:100E190011AEAB11AA12A9131208F6FFAB17AA1843
:100E2900A919F58275830012090F70047E018002E9
:100E39007E00AB17AA18A9198F82758300EE0209E3
:010E49007038
:100B8500E4F508F509780A7C00FD7BFF7A1179BD4B
:100B9500FE7F051208D0E4F50FF51075FFDE75FF31
:100BA500AD75B214F5E1F5E275E340FF120E4A7F2B
:100BB50001120E4A7F02120E4A7F03120E4A7F046B
:100BC500120E4A7F05120E4A7F06120E4A7F071241
:100BD5000E4A7F08120E4A7F09120E4A7F0A120E2C
:100BE5004AE4FDFF121136E4FD7F021211367D0144
:100BF5007F01121136E4FD7F031211361211B6AFD3
:100C0500081211AE75140075150075160F7B007A64
:100C150000790A1209E7BF01EB7B007A00790A1215
:100C25000EFFBF01DF800EE5096508601B740A250C
:100C350009F8E67013E5092401FFE433FE7C007D25
:100C4500051209928D0980DFE509650860B6E5089A
:100C5500C39509501D75140075150075160975178E
:100C65000075180075190A7B007A007908120C9C2A
:100C75008092E508D39509408B75140075150075AC
:100C8500160975170075180075190A7B007A007921
:070C950008120D73020C09A7
:10116D00E4FDFCC3ED9FEC9E5015E4FBFA0BBB00B8
:0F117D00010AEB64144A70F50DBD00010C80E40B
:01118C002240
:10113600EF14601E14601114602224037026E5A6C5
:1011460054FE4401F5A6801CE5A654FD4402F5A60E
:101156008012E5A654FB4404F5A68008E5A654F7DC
:071166004408F5A60210C3C6
:10118D008F1E1210FEBF0104E4FD80027D01AF1E13
:04119D001210C32247
:1010C300EF14601C14600F1460222403702CE5A03D
:1010D30054FE4DF5A022ED25E0FFE5A054FD801759
:1010E300ED25E025E0FFE5A054FB800BED33333322
:0B10F30054F8FFE5A054F74FF5A022D1
:1010FE00E4FEEF14601A14600E14601F24037025B2
:10110E00E5A05401FE801EE5A05402C313FE801517
:10111E00E5A054041313543FFE800AE5A0540813AF
:07112E001313541FFEAF066E
:011135002297
:0C11A1000A1FC0F9A4B0999282F8809057
:0711B60075A4FE851F8022D5
:0811AE00741F2FF8E6F5802202
:100E4A00EFB40B004003020EFE900E5AF8282873E6
:100E5A00020E7B020E87020EC3020E93020E9F023F
:100E6A000EAB020EB7020ECF020EDB020EE7020E27
:100E7A00F353A5BFE59054BF4440F5902253A57F94
:100E8A00E590547F4480F5902253A5FBE59054FBEE
:100E9A004404F5902253A5F7E59054F74408F590D9
:100EAA002253A5EFE59054EF4410F5902253A5DFA5
:100EBA00E59054DF4420F5902253A5FDE59054FDBA
:100ECA004402F5902253A5EFE5A054EF4410F5A093
:100EDA002253A6DFE5A054DF4420F5A02253A6BF83
:100EEA00E5A054BF4440F5A02253A67FE5A0547F55
:050EFA004480F5A02278
:100FA9007E01EFB40B004003021034900FBBF82808
:100FB9002873020FDC020FE0021009020FE4020F8E
:100FC900EF020FFB02100502103402101202101D6D
:100FD900021029E590803FE5908047E5905404137D
:100FE90013543FFE8045E5905408131313541FFE14
:100FF9008039E5905410C4540FFE802FE590800B82
:10100900E5905402C313FE8022E5A05420C4135472
:1010190007FE8017E5A05440C413135403FE800B48
:0D102900E5A05480C41313135401FEAF065C
:011036002297
:03000000021037B4
:0C103700787FE4F6D8FD75812802107E59
:10080000E709F608DFFA8046E709F208DFFA803EDA
:1008100088828C83E709F0A3DFFA8032E309F608C7
:10082000DFFA8078E309F208DFFA807088828C832F
:10083000E309F0A3DFFA806489828A83E0A3F608E3
:10084000DFFA805889828A83E0A3F208DFFA804CBD
:1008500080D280FA80C680D4806980F28033801094
:1008600080A680EA809A80A880DA80E280CA8033FD
:1008700089828A83ECFAE493A3C8C582C8CCC58375
:10088000CCF0A3C8C582C8CCC583CCDFE9DEE78045
:100890000D89828A83E493A3F608DFF9ECFAA9F0C4
:1008A000EDFB2289828A83ECFAE0A3C8C582C8CC1A
:1008B000C583CCF0A3C8C582C8CCC583CCDFEADE33
:1008C000E880DB89828A83E493A3F208DFF980CC95
:1008D00088F0EF60010E4E60C388F0ED2402B4048E
:1008E0000050B9F582EB2402B4040050AF23234535
:0608F00082239008507302
:1008F600BB010689828A83E0225002E722BBFE0200
:09090600E32289828A83E4932232
:10090F00BB010CE58229F582E5833AF583E022509D
:10091F0006E92582F8E622BBFE06E92582F8E222E7
:0D092F00E58229F582E5833AF583E4932201
:10093C00BB010989828A83F8E028F022500327F74B
:10094C0022BBFE05F8E328F3228A838982F8E4931C
:02095C0028224F
:10095E00BB010689828A83F0225002F722BBFE0178
:02096E00F32272
:10097000F8BB010DE58229F582E5833AF583E8F0BD
:10098000225006E92582C8F622BBFE05E92582C869
:02099000F22251
:10099200BC000BBE0029EF8DF084FFADF022E4CC49
:1009A200F875F008EF2FFFEE33FEEC33FCEE9DEC12
:1009B200984005FCEE9DFE0FD5F0E9E4CEFD22ED58
:1009C200F8F5F0EE8420D21CFEADF075F008EF2FA2
:1009D200FFED33FD4007985006D5F0F222C398FD93
:0509E2000FD5F0EA2230
:10104300020B85E493A3F8E493A34003F68001F233
:1010530008DFF48029E493A3F85407240CC8C333AE
:10106300C4540F4420C8834004F456800146F6DF7D
:10107300E4800B01020408102040809011A1E47E5B
:10108300019360BCA3FF543F30E509541FFEE49372
:10109300A360010ECF54C025E060A840B8E493A339
:1010A300FAE493A3F8E493A3C8C582C8CAC583CA64
:1010B300F0A3C8C582C8CAC583CADFE9DEE780BE1C
:0111AD000041
:00000001FF
